:100000008FC0A9C0A8C0A7C0A6C0A5C0A4C0A3C0D7
:10001000A2C0A1C0A0C09FC09EC09DC0A8C09BC0E0
:100020009AC099C098C000407A10F35A00A0724E4E
:1000300018090010A5D4E80000E87648170000E48D
:100040000B54020000CA9A3B000000E1F5050000D5
:1000500080969800000040420F000000A08601003A
:100060000000102700000000E8030000000064000A
:10007000000000000A000000000001000000000075
:100080002C76D888DC674F0823DFC1DFAE59E1B199
:10009000B796E5E3E453C63AE651997696E8E6C2A8
:1000A0008426EB898C9B62ED407C6FFCEFBC9C9FAF
:1000B00040F2BAA56FA5F490055A2AF75C936B6CD1
:1000C000F9676DC11BFCE0E40D47FEF520E6B500C5
:1000D000D0ED902E0300943577050080841E080033
:1000E00000204E0A000000C80C333333330F986EE3
:1000F00012831141EF8D2114893BE65516CFFEE6A0
:10010000DB18D1844B381BF77C1D901DA4BBE42465
:10011000203284725E228100C9F124ECA1E53D27E2
:1001200011241FBECFE5D4E0DEBFCDBF11E0A0E6B5
:10013000B0E0E0EBF1E102C005900D92A034B10710
:10014000D9F721E0A0E4B1E001C01D92A437B207C5
:10015000E1F7ECD22BC854CF462B47B9806C86B957
:10016000349BFECF84B125B190E0922B08951F926D
:100170000F920FB60F9211242F933F934F935F93DB
:100180006F937F938F939F93AF93BF93EF93FF935F
:1001900064B185B170E0782BE0914401F0914501A4
:1001A000809140010995809140018F5F80934001CB
:1001B00090914301891710F01092400187B1807E21
:1001C00090914001892B87B9369AFF91EF91BF91A9
:1001D000AF919F918F917F916F915F914F913F91DF
:1001E0002F910F900FBE0F901F9018951BB810BC49
:1001F00087E689B988E18AB986E880BD08955D9B64
:10020000FECF8CB90895CF93DF93EC0188818823CA
:1002100029F02196F4DF89918111FCCF2FEF81EE37
:1002200094E0215080409040E1F700C00000DF9151
:10023000CF910895CF93DF93282F39E2839F312DFB
:10024000112432953F704CE94303C0011124820F01
:10025000911D6AE070E0FED4D62F205DC22F349F3E
:10026000C00D112480E3830FCADF80E38D0FC7DF49
:10027000DD0F8D2F880F880FD80F8C2F8D1BBFDFC0
:10028000DF91CF9108955F9BFECF8CB108958F923F
:100290009F92AF92BF92CF92DF92EF92FF920F9315
:1002A0001F93CF93DF93109268011092690110920F
:1002B0006A0110926B010AE010E00F2EC12CF0ECE5
:1002C000DF2EFFE7EF2EF4E4FF2EF02DC092460163
:1002D000D0924701E0924801F092490141E060E488
:1002E00087E03ADFBC0180E090E052D36093640184
:1002F0007093650180936601909367018FE39FE19E
:100300000197F1F700C00000C2E3D0E041E060E4F3
:1003100087E022DFBC0180E090E03AD36093640183
:100320007093650180936601909367018FE39FE16D
:100330000197F1F700C00000809064019090650182
:10034000A0906601B0906701A501940160914601FB
:10035000709147018091480190914901A7D31816E7
:1003600044F48092460190924701A0924801B092D5
:100370004901219759F6209146013091470140915A
:100380004801509149016091680170916901809123
:100390006A0190916B01FFD16093680170936901CC
:1003A00080936A0190936B010150110909F08ECF7F
:1003B00020E030E040E251E452D2DFD39B01AC01B7
:1003C000609368017093690180936A0190936B0157
:1003D000609170017091710180917201909173012F
:1003E000D9D1A5D29B01772324F422273327261BBA
:1003F000370BB901330F880B990BCCD220916500D4
:1004000030916600409167005091680028D2609357
:10041000600170936101809362019093630142E0F7
:1004200060E487E099DEBC0180E090E0B1D22091E9
:10043000690030916A0040916B0050916C000FD2BE
:1004400060934E0170934F0180935001909351013E
:100450008FE39FE10197F1F700C0000042E060E404
:1004600087E07ADEBC0180E090E092D220916900C2
:1004700030916A0040916B0050916C00F0D1609314
:100480004E0170934F018093500190935101209140
:1004900060013091610140916201509163010AD382
:1004A00060934A0170934B0180934C0190934D01EE
:1004B000209161003091620040916300509164008E
:1004C000CED160936C0170936D0180936E01909317
:1004D0006F01DF91CF911F910F91FF90EF90DF900F
:1004E000CF90BF90AF909F908F900895AF92BF92A2
:1004F000CF92DF92EF92FF920F931F93CF93DF93F0
:10050000181619060CF086C08C01C0E0D0E00F2E42
:10051000F2E2BF2EF02D6894AA24A2F86894CC24AD
:10052000C1F8D12CEE24E394F12C2FEF80E792E078
:10053000215080409040E1F700C0000043E060E4BB
:1005400087E00ADEBC0180E090E022D26093520195
:100550007093530180935401909355018FE39FE171
:100560000197F1F700C0000043E060E487E0F4DDAC
:10057000BC0180E090E00CD2609352017093530173
:1005800080935401909355019FEF20E782E09150B2
:1005900020408040E1F700C0000020E030E040EA69
:1005A00051E46091520170915301809154019091F6
:1005B00055017CD218162CF4F0924201E0924101D0
:1005C00027C020E030E048EC52E460914A0170918D
:1005D0004B0180914C0190914D0168D218162CF47A
:1005E000D0924201C092410113C010924201109278
:1005F000410180916000813311F4A8BA03C08033B7
:1006000009F418BA21960C171D0709F08ECF02C005
:10061000B8BAF8CFDF91CF911F910F91FF90EF9073
:10062000DF90CF90BF90AF9008950F931F938DE60A
:1006300090E0E9DD2FEF83ED90E321508040904082
:10064000E1F700C0000089E990E0DDDD2FEF83EDE8
:1006500090E3215080409040E1F700C0000089EA1B
:1006600090E0D1DD2FEF81EE94E02150804090406A
:10067000E1F700C0000060916C0170916D01809104
:100680006E0190916F0106E511E026E047E009D385
:10069000C801B9DD86ED90E0B6DD80914101CADD8B
:1006A0008AEF90E0B0DD2FEF89E698E1215080409D
:1006B0009040E1F700C000008FED90E0A4DD1F91B5
:1006C0000F9108958DE690E09EDD2FEF83ED90E38E
:1006D000215080409040E1F700C000008DEE90E096
:1006E00092DD2FEF83ED90E3215080409040E1F7C1
:1006F00000C000008DEF90E086DD2FEF83ED90E3EA
:10070000215080409040E1F700C000008FED90E064
:100710007ADD809160008A3329F0B5DD8093600036
:100720008A33D9F7B0DD80936000089586E287BBF5
:1007300084E088BB5BDDABDDC5E0D0E0C12CD12C13
:100740007601A5DD209168013091690140916A012F
:1007500050916B01C701B6011ED06B017C0121973E
:1007600081F720E030E040EA50E479D006D260938F
:10077000700170937101809372019093730187DD12
:1007800054DFCCE0D0E084E190E0B0DE9BDF219745
:10079000D1F7F5CF5058BB27AA270ED04DC13ED177
:1007A00030F043D120F031F49F3F11F41EF433C1F7
:1007B0000EF4E095E7FB29C1E92F4FD180F3BA177A
:1007C000620773078407950718F071F49EF567C1F7
:1007D0000EF4E0950B2EBA2FA02D0B01B90190015C
:1007E0000C01CA01A0011124FF27591B99F0593FA0
:1007F00050F4503E68F11A16F040A22F232F342FE8
:100800004427585FF3CF469537952795A795F04035
:100810005395C9F77EF41F16BA0B620B730B840B4A
:10082000BAF09150A1F0FF0FBB1F661F771F881F02
:10083000C2F70EC0BA0F621F731F841F48F487955A
:1008400077956795B795F7959E3F08F0B3CF939549
:10085000880F08F09927EE0F9795879508950CD08B
:10086000EBC0E3D040F0DAD030F021F45F3F19F074
:10087000CCC0511115C1CFC0F0D098F39923C9F362
:100880005523B1F3951B550BBB27AA276217730796
:10089000840738F09F5F5F4F220F331F441FAA1F4A
:1008A000A9F333D00E2E3AF0E0E830D0915050400A
:1008B000E695001CCAF729D0FE2F27D0660F771FB8
:1008C000881FBB1F261737074807AB07B0E809F09A
:1008D000BB0B802DBF01FF2793585F4F2AF09E3F2F
:1008E000510568F092C0DCC05F3FECF3983EDCF34A
:1008F000869577956795B795F7959F5FC9F7880FA8
:10090000911D9695879597F90895E1E0660F771FF9
:10091000881FBB1F621773078407BA0720F0621B8A
:10092000730B840BBA0BEE1F88F7E095089504D083
:100930006894B111B5C0089598D088F09F5790F091
:10094000B92F9927B751A0F0D1F0660F771F881FF4
:10095000991F1AF0BA95C9F712C0B13081F09FD033
:10096000B1E008959CC0672F782F8827B85F39F0D1
:10097000B93FCCF3869577956795B395D9F73EF453
:1009800090958095709561957F4F8F4F9F4F0895FB
:10099000E89409C097FB3EF4909580957095619519
:1009A0007F4F8F4F9F4F9923A9F0F92F96E9BB27CF
:1009B0009395F695879577956795B795F111F8CF4B
:1009C000FAF4BB0F11F460FF1BC06F5F7F4F8F4FB6
:1009D0009F4F16C0882311F096E911C0772321F0AC
:1009E0009EE8872F762F05C0662371F096E8862F44
:1009F00070E060E02AF09A95660F771F881FDAF79B
:100A0000880F9695879597F9089597F99F6780E8DD
:100A100070E060E008959FEF80EC089500240A9450
:100A20001616170618060906089500240A941216C9
:100A30001306140605060895092E0394000C11F4FC
:100A4000882352F0BB0F40F4BF2B11F460FF04C0A9
:100A50006F5F7F4F8F4F9F4F089557FD9058440F02
:100A6000551F59F05F3F71F04795880F97FB991F0D
:100A700061F09F3F79F087950895121613061406CA
:100A8000551FF2CF4695F1DF08C016161706180657
:100A9000991FF1CF86957105610508940895E89432
:100AA000BB2766277727CB0197F9089586D008F4EE
:100AB0008FEF08950BD0C0CFB1DF28F0B6DF18F06C
:100AC000952309F0A2CFA7CF1124EACFC6DFA0F368
:100AD000959FD1F3950F50E0551F629FF001729FD3
:100AE000BB27F00DB11D639FAA27F00DB11DAA1FF2
:100AF000649F6627B00DA11D661F829F2227B00D3F
:100B0000A11D621F739FB00DA11D621F839FA00DC9
:100B1000611D221F749F3327A00D611D231F849F19
:100B2000600D211D822F762F6A2F11249F57504070
:100B30008AF0E1F088234AF0EE0FFF1FBB1F661F0B
:100B4000771F881F91505040A9F79E3F510570F0C4
:100B50005CCFA6CF5F3FECF3983EDCF386957795AC
:100B60006795B795F795E7959F5FC1F7FE2B880FBF
:100B7000911D9695879597F9089577DFE0F09E3758
:100B8000D8F09639B8F49E3848F4672F782F882724
:100B9000985FF9CF86957795679593959539D0F3BA
:100BA000B62FB1706B0F711D811D20F4879577955D
:100BB0006795939526C040C073CF990F0008550FD5
:100BC000AA0BE0E8FEEF16161706E807F907C0F0D3
:100BD00012161306E407F50798F0621B730B840BDB
:100BE000950B39F40A2661F0232B242B252B21F4B5
:100BF00008950A2609F4A140A6958FEF811D811D55
:100C00000895882371F4772321F09850872B762F4D
:100C100007C0662311F499270DC09051862B70E010
:100C200060E02AF09A95660F771F881FDAF7880F21
:100C30009695879597F908959F3F31F0915020F44C
:100C4000879577956795B795880F911D96958795A8
:100C500097F9089597FB072E16F4009406D077FDB8
:100C600008D00BD007FC05D03EF4909581959F4F9E
:100C70000895709561957F4F0895AA1BBB1B51E1A4
:100C800007C0AA1FBB1FA617B70710F0A61BB70BFC
:100C9000881F991F5A95A9F780959095BC01CD01A1
:100CA0000895EF920F931F93CF93DF93E80147FDD1
:100CB00002C034E001C034E1042E000C550B57FF94
:100CC00003C0519541955109E32E022F242FAE0107
:100CD00007D0CE01DF91CF911F910F91EF90089532
:100CE000A9E0B0E0E5E7F6E030C26A01122FB02ECD
:100CF0002BE3201720F0FF24F394F00E02C02CE326
:100D0000F22E0F2D27E0AE014F5F5F4F40D1BC01A7
:100D10004981842F8970813031F0E1FC06C0E0FE0A
:100D200006C090E205C09DE203C09BE201C090E0D6
:100D30005E2D507143FF3CC0911102C083E001C0A1
:100D400084E0811718F4212F281B01C020E05111E5
:100D50000BC0F601822F30E2882319F031938150C5
:100D6000FBCFC20ED11C20E0992329F0D6019C9321
:100D7000F60131966F01C6010396E2FE0AC03EE419
:100D8000D6013C9341E411964C93119712963C93F3
:100D900006C03EE6F601308341E641833283FC0122
:100DA000322F40E2332309F442C041933150FACF4D
:100DB00042FF44C0911102C083E001C084E081176A
:100DC00018F4212F281B01C020E051110BC0F6019F
:100DD000822F30E2882319F031938150FBCFC20E6D
:100DE000D11C20E0992329F0D6019C93F60131967D
:100DF0006F01C6010396E2FE0BC039E4D6013C93B5
:100E00003EE411963C93119736E412963C9307C04A
:100E100039E6F60130833EE6318336E63283FC0163
:100E2000322F40E2332319F041933150FBCFFC01C4
:100E3000E20FF11D10828EEF9FEFA6C021E030E09F
:100E4000911102C020E030E0161617061CF4FB01D9
:100E5000319602C0E1E0F0E02E0F3F1FBB2021F0F1
:100E6000EB2DF0E0319602C0E0E0F0E02E0F3F1FE6
:100E7000E12FF0E02E173F071CF4121B212F01C0B9
:100E800020E08E2D887159F4F601822F30E28823FC
:100E900019F031938150FBCFC20ED11C20E0992371
:100EA00029F0D6019C93F60131966F0151110BC0C8
:100EB000F601822F90E3882319F091938150FBCFA4
:100EC000C20ED11C20E00F2D060F9A81342F3071F5
:100ED00044FF03C0913309F40150101624F4093083
:100EE00018F008E001C001E0AB0177FF02C040E06C
:100EF00050E0FB01E41BF50BA1E0B0E0AC0FBD1F1F
:100F0000EA0FFB1F8EE2A82E4B01801A91080B2DD1
:100F100010E01195019511094F3FBFEF5B0721F4D8
:100F2000D601AC9211966D01641775072CF08416EA
:100F3000950614F4818101C080E341505109319636
:100F4000D60111967D014017510724F0D6018C93EC
:100F50006701E2CF6417750739F4963320F49533AF
:100F600019F4311101C081E3F6018083F701822F6A
:100F700090E2882319F091938150FBCFF701E20FA3
:100F8000F11D108280E090E02996ECE0FAC0283054
:100F900008F027E03327DA01990F311D87FD9160B2
:100FA00000966105710539F432602E5F3D9330E3A0
:100FB0002A95E1F708959F3F30F08038710561056B
:100FC00009F03C5F3C5F3D93913008F08068911DD3
:100FD000DF93CF931F930F93FF92EF92192F987F78
:100FE0009695E92F96959695E90FFF27E058FF4FC4
:100FF00099273327EE24FF24A701E70105900894E1
:10100000079428F4360FE71EF81E491F511D660F7E
:10101000771F881F991F0694A1F70590079428F45D
:10102000E70EF81E491F561FC11D770F881F991F15
:10103000661F0694A1F70590079428F4F80E491F3F
:10104000561FC71FD11D880F991F661F771F069453
:10105000A1F70590079420F4490F561FC71FD81F0A
:10106000990F661F771F881F0694A9F78491109522
:10107000177041F0D695C79557954795F794E79423
:101080001A95C1F7E6E2F0E0689415901591359154
:101090006591959105907FE27395E118F10A430BF4
:1010A000560BC90BD009C0F7E10CF11E431F561FA8
:1010B000C91FD01D7EF4703311F48A95E6CFE894F1
:1010C000015030F0080F0AF40027021708F4202F0F
:1010D0002395022F7A3328F079E37D932A95E9F757
:1010E00010C07D932A9589F6069497956795379554
:1010F00017951794E118F10A430B560BC90BD00949
:1011000098F023957E9173957A3308F070E37C9381
:101110002013B8F77E9170617D9330F0839571E371
:101120007D9370E32A95E1F71124EF90FF900F91E2
:101130001F91CF91DF91992787FD909508952F9268
:101140003F924F925F926F927F928F929F92AF9257
:10115000BF92CF92DF92EF92FF920F931F93CF93A4
:10116000DF93CDB7DEB7CA1BDB0B0FB6F894DEBF3B
:101170000FBECDBF09942A88398848885F846E8461
:101180007D848C849B84AA84B984C884DF80EE80AB
:10119000FD800C811B81AA81B981CE0FD11D0FB6B4
:1011A000F894DEBF0FBECDBFED010895F894FFCFD8
:1011B000310000C8420000F042D7A3B03F41542B99
:1011C00043495053544152543D22544350222C22FF
:1011D0006170692E7468696E67737065616B2E63E8
:1011E0006F6D222C38300D0A0041542B4349505367
:1011F000454E443D36370D0A00474554202F757043
:10120000646174653F6170695F6B65793D33554317
:10121000533758385858334F355051434B26666929
:10122000656C64313D00266669656C64333D004140
:10123000542B434950434C4F53450D0A0041542B06
:1012400043495053454E443D37300D0A00474554FD
:10125000202F6368616E6E656C732F3938343332BA
:10126000362F6669656C64732F322F6C6173742E30
:101270007478743F6170695F6B65793D31564737AB
:10128000524D354139415158534B56330D0A0000E8
:00000001FF
